{
  "contractName": "Tranzy",
  "abi": [
    {
      "anonymous": false,
      "inputs": [
        {
          "indexed": false,
          "internalType": "address",
          "name": "from",
          "type": "address"
        },
        {
          "indexed": false,
          "internalType": "address",
          "name": "to",
          "type": "address"
        },
        {
          "indexed": false,
          "internalType": "uint256",
          "name": "amount",
          "type": "uint256"
        },
        {
          "indexed": false,
          "internalType": "string",
          "name": "message",
          "type": "string"
        },
        {
          "indexed": false,
          "internalType": "uint256",
          "name": "timestamp",
          "type": "uint256"
        }
      ],
      "name": "Transfer",
      "type": "event"
    },
    {
      "inputs": [
        {
          "internalType": "address payable",
          "name": "receiver",
          "type": "address"
        },
        {
          "internalType": "uint256",
          "name": "amount",
          "type": "uint256"
        },
        {
          "internalType": "string",
          "name": "message",
          "type": "string"
        }
      ],
      "name": "makeTransaction",
      "outputs": [],
      "stateMutability": "nonpayable",
      "type": "function"
    },
    {
      "inputs": [],
      "name": "getAllTransactions",
      "outputs": [
        {
          "components": [
            {
              "internalType": "address",
              "name": "sender",
              "type": "address"
            },
            {
              "internalType": "address",
              "name": "receiver",
              "type": "address"
            },
            {
              "internalType": "uint256",
              "name": "amount",
              "type": "uint256"
            },
            {
              "internalType": "string",
              "name": "message",
              "type": "string"
            },
            {
              "internalType": "uint256",
              "name": "timestamp",
              "type": "uint256"
            }
          ],
          "internalType": "struct Tranzy.TransactionStruct[]",
          "name": "",
          "type": "tuple[]"
        }
      ],
      "stateMutability": "view",
      "type": "function"
    },
    {
      "inputs": [],
      "name": "getTransactionCount",
      "outputs": [
        {
          "internalType": "uint256",
          "name": "",
          "type": "uint256"
        }
      ],
      "stateMutability": "view",
      "type": "function"
    }
  ],
  "bytecode": "0x608060405234801561001057600080fd5b50610b4f806100206000396000f3fe608060405234801561001057600080fd5b50600436106100415760003560e01c806327506f53146100465780632e7700f0146100645780636729bc5714610082575b600080fd5b61004e61009e565b60405161005b91906106c0565b60405180910390f35b61006c61024f565b60405161007991906106f1565b60405180910390f35b61009c600480360381019061009791906108bf565b610258565b005b60606001805480602002602001604051908101604052809291908181526020016000905b8282101561024657838290600052602060002090600502016040518060a00160405290816000820160009054906101000a900473ffffffffffffffffffffffffffffffffffffffff1673ffffffffffffffffffffffffffffffffffffffff1673ffffffffffffffffffffffffffffffffffffffff1681526020016001820160009054906101000a900473ffffffffffffffffffffffffffffffffffffffff1673ffffffffffffffffffffffffffffffffffffffff1673ffffffffffffffffffffffffffffffffffffffff168152602001600282015481526020016003820180546101ab9061095d565b80601f01602080910402602001604051908101604052809291908181526020018280546101d79061095d565b80156102245780601f106101f957610100808354040283529160200191610224565b820191906000526020600020905b81548152906001019060200180831161020757829003601f168201915b50505050508152602001600482015481525050815260200190600101906100c2565b50505050905090565b60008054905090565b60008081548092919061026a906109be565b919050555060016040518060a001604052803373ffffffffffffffffffffffffffffffffffffffff1681526020018573ffffffffffffffffffffffffffffffffffffffff16815260200184815260200183815260200142815250908060018154018082558091505060019003906000526020600020906005020160009091909190915060008201518160000160006101000a81548173ffffffffffffffffffffffffffffffffffffffff021916908373ffffffffffffffffffffffffffffffffffffffff16021790555060208201518160010160006101000a81548173ffffffffffffffffffffffffffffffffffffffff021916908373ffffffffffffffffffffffffffffffffffffffff1602179055506040820151816002015560608201518160030190805190602001906103a19291906103f2565b506080820151816004015550507fc4b32d7ff75a51e487f3cbb5d3202f2efecca1f4c2b987e0039c1d3220b48a8333848484426040516103e5959493929190610abf565b60405180910390a1505050565b8280546103fe9061095d565b90600052602060002090601f0160209004810192826104205760008555610467565b82601f1061043957805160ff1916838001178555610467565b82800160010185558215610467579182015b8281111561046657825182559160200191906001019061044b565b5b5090506104749190610478565b5090565b5b80821115610491576000816000905550600101610479565b5090565b600081519050919050565b600082825260208201905092915050565b6000819050602082019050919050565b600073ffffffffffffffffffffffffffffffffffffffff82169050919050565b60006104ec826104c1565b9050919050565b6104fc816104e1565b82525050565b6000819050919050565b61051581610502565b82525050565b600081519050919050565b600082825260208201905092915050565b60005b8381101561055557808201518184015260208101905061053a565b83811115610564576000848401525b50505050565b6000601f19601f8301169050919050565b60006105868261051b565b6105908185610526565b93506105a0818560208601610537565b6105a98161056a565b840191505092915050565b600060a0830160008301516105cc60008601826104f3565b5060208301516105df60208601826104f3565b5060408301516105f2604086018261050c565b506060830151848203606086015261060a828261057b565b915050608083015161061f608086018261050c565b508091505092915050565b600061063683836105b4565b905092915050565b6000602082019050919050565b600061065682610495565b61066081856104a0565b935083602082028501610672856104b1565b8060005b858110156106ae578484038952815161068f858261062a565b945061069a8361063e565b925060208a01995050600181019050610676565b50829750879550505050505092915050565b600060208201905081810360008301526106da818461064b565b905092915050565b6106eb81610502565b82525050565b600060208201905061070660008301846106e2565b92915050565b6000604051905090565b600080fd5b600080fd5b600061072b826104c1565b9050919050565b61073b81610720565b811461074657600080fd5b50565b60008135905061075881610732565b92915050565b61076781610502565b811461077257600080fd5b50565b6000813590506107848161075e565b92915050565b600080fd5b600080fd5b7f4e487b7100000000000000000000000000000000000000000000000000000000600052604160045260246000fd5b6107cc8261056a565b810181811067ffffffffffffffff821117156107eb576107ea610794565b5b80604052505050565b60006107fe61070c565b905061080a82826107c3565b919050565b600067ffffffffffffffff82111561082a57610829610794565b5b6108338261056a565b9050602081019050919050565b82818337600083830152505050565b600061086261085d8461080f565b6107f4565b90508281526020810184848401111561087e5761087d61078f565b5b610889848285610840565b509392505050565b600082601f8301126108a6576108a561078a565b5b81356108b684826020860161084f565b91505092915050565b6000806000606084860312156108d8576108d7610716565b5b60006108e686828701610749565b93505060206108f786828701610775565b925050604084013567ffffffffffffffff8111156109185761091761071b565b5b61092486828701610891565b9150509250925092565b7f4e487b7100000000000000000000000000000000000000000000000000000000600052602260045260246000fd5b6000600282049050600182168061097557607f821691505b602082108114156109895761098861092e565b5b50919050565b7f4e487b7100000000000000000000000000000000000000000000000000000000600052601160045260246000fd5b60006109c982610502565b91507fffffffffffffffffffffffffffffffffffffffffffffffffffffffffffffffff8214156109fc576109fb61098f565b5b600182019050919050565b610a10816104e1565b82525050565b6000819050919050565b6000610a3b610a36610a31846104c1565b610a16565b6104c1565b9050919050565b6000610a4d82610a20565b9050919050565b6000610a5f82610a42565b9050919050565b610a6f81610a54565b82525050565b600082825260208201905092915050565b6000610a918261051b565b610a9b8185610a75565b9350610aab818560208601610537565b610ab48161056a565b840191505092915050565b600060a082019050610ad46000830188610a07565b610ae16020830187610a66565b610aee60408301866106e2565b8181036060830152610b008185610a86565b9050610b0f60808301846106e2565b969550505050505056fea2646970667358221220c59adf36d79c872b3432be8ce726400aa852737dd375611e3f62b3b1c4a9e70264736f6c634300080b0033",
  "immutableReferences": {},
  "source": "// SPDX-License-Identifier: UNLICENSED\r\npragma solidity >=0.4.22 <0.9.0;\r\n\r\ncontract Tranzy {\r\n\r\n    uint transactionCount;\r\n\r\n    event Transfer(address from, address to, uint amount, string message, uint timestamp);\r\n\r\n    struct TransactionStruct{\r\n        address sender;\r\n        address receiver;\r\n        uint amount;\r\n        string message;\r\n        uint timestamp;\r\n    }\r\n\r\n    TransactionStruct[] allTransactions;\r\n\r\n    function makeTransaction(address payable receiver, uint amount, string memory message) public{\r\n        transactionCount++;\r\n        allTransactions.push(TransactionStruct(msg.sender,receiver,amount,message,block.timestamp));\r\n\r\n        emit Transfer(msg.sender, receiver, amount, message, block.timestamp);\r\n    }\r\n\r\n    function getAllTransactions() public view returns(TransactionStruct[] memory){\r\n        return allTransactions;\r\n    }\r\n\r\n    function getTransactionCount() public view returns(uint){\r\n        return transactionCount;\r\n    }\r\n}\r\n",
  "sourcePath": "c:\\Users\\KIIT\\Desktop\\ALL CODE ND STUFFS\\PROJECTS-REPOS\\web3 projects\\Dapps\\Tranzy-dapp\\blockchain\\contracts\\Tranzy.sol",
  "compiler": {
    "name": "solc",
    "version": "0.8.11+commit.d7f03943.Emscripten.clang"
  },
  "schemaVersion": "3.4.5",
  "updatedAt": "2022-10-21T17:40:08.950Z",
  "devdoc": {
    "kind": "dev",
    "methods": {},
    "version": 1
  },
  "userdoc": {
    "kind": "user",
    "methods": {},
    "version": 1
  }
}